{
  "_format": "hh-sol-artifact-1",
  "contractName": "AcademicCertificate",
  "sourceName": "contracts/Certificate.sol",
  "abi": [
    {
      "inputs": [],
      "stateMutability": "nonpayable",
      "type": "constructor"
    },
    {
      "anonymous": false,
      "inputs": [
        {
          "indexed": true,
          "internalType": "string",
          "name": "certHash",
          "type": "string"
        },
        {
          "indexed": false,
          "internalType": "string",
          "name": "studentId",
          "type": "string"
        }
      ],
      "name": "CertificateIssued",
      "type": "event"
    },
    {
      "anonymous": false,
      "inputs": [
        {
          "indexed": true,
          "internalType": "string",
          "name": "certHash",
          "type": "string"
        }
      ],
      "name": "CertificateRevoked",
      "type": "event"
    },
    {
      "inputs": [
        {
          "internalType": "string",
          "name": "_certHash",
          "type": "string"
        },
        {
          "internalType": "string",
          "name": "_studentId",
          "type": "string"
        },
        {
          "internalType": "string",
          "name": "_studentName",
          "type": "string"
        },
        {
          "internalType": "string",
          "name": "_major",
          "type": "string"
        },
        {
          "internalType": "string",
          "name": "_ipfsHash",
          "type": "string"
        }
      ],
      "name": "mintCertificate",
      "outputs": [],
      "stateMutability": "nonpayable",
      "type": "function"
    },
    {
      "inputs": [
        {
          "internalType": "string",
          "name": "_certHash",
          "type": "string"
        }
      ],
      "name": "revokeCertificate",
      "outputs": [],
      "stateMutability": "nonpayable",
      "type": "function"
    },
    {
      "inputs": [],
      "name": "universityAdmin",
      "outputs": [
        {
          "internalType": "address",
          "name": "",
          "type": "address"
        }
      ],
      "stateMutability": "view",
      "type": "function"
    },
    {
      "inputs": [
        {
          "internalType": "string",
          "name": "_certHash",
          "type": "string"
        }
      ],
      "name": "verifyCertificate",
      "outputs": [
        {
          "internalType": "string",
          "name": "studentId",
          "type": "string"
        },
        {
          "internalType": "string",
          "name": "studentName",
          "type": "string"
        },
        {
          "internalType": "string",
          "name": "major",
          "type": "string"
        },
        {
          "internalType": "string",
          "name": "ipfsHash",
          "type": "string"
        },
        {
          "internalType": "uint256",
          "name": "issueDate",
          "type": "uint256"
        },
        {
          "internalType": "bool",
          "name": "isValid",
          "type": "bool"
        }
      ],
      "stateMutability": "view",
      "type": "function"
    }
  ],
  "bytecode": "0x608060405234801561001057600080fd5b50336000806101000a81548173ffffffffffffffffffffffffffffffffffffffff021916908373ffffffffffffffffffffffffffffffffffffffff16021790555061123f806100606000396000f3fe608060405234801561001057600080fd5b506004361061004c5760003560e01c8063142e15421461005157806375ea8dbc1461006d5780638b23d87514610089578063e0929111146100be575b600080fd5b61006b600480360381019061006691906109b8565b6100dc565b005b61008760048036038101906100829190610a01565b6102ce565b005b6100a3600480360381019061009e91906109b8565b6104f3565b6040516100b596959493929190610bbb565b60405180910390f35b6100c661083a565b6040516100d39190610c79565b60405180910390f35b60008054906101000a900473ffffffffffffffffffffffffffffffffffffffff1673ffffffffffffffffffffffffffffffffffffffff163373ffffffffffffffffffffffffffffffffffffffff161461016a576040517f08c379a000000000000000000000000000000000000000000000000000000000815260040161016190610d06565b60405180910390fd5b600060018260405161017c9190610d62565b9081526020016040518091039020600001805461019890610da8565b9050036101da576040517f08c379a00000000000000000000000000000000000000000000000000000000081526004016101d190610e25565b60405180910390fd5b600115156001826040516101ee9190610d62565b908152602001604051809103902060050160009054906101000a900460ff1615151461024f576040517f08c379a000000000000000000000000000000000000000000000000000000000815260040161024690610eb7565b60405180910390fd5b60006001826040516102619190610d62565b908152602001604051809103902060050160006101000a81548160ff021916908315150217905550806040516102979190610d62565b60405180910390207f266095b5af7e2323760fef151f1d78896740cd2cc1b73a6357ff9e4c3fdae74060405160405180910390a250565b60008054906101000a900473ffffffffffffffffffffffffffffffffffffffff1673ffffffffffffffffffffffffffffffffffffffff163373ffffffffffffffffffffffffffffffffffffffff161461035c576040517f08c379a000000000000000000000000000000000000000000000000000000000815260040161035390610d06565b60405180910390fd5b600060018660405161036e9190610d62565b9081526020016040518091039020600001805461038a90610da8565b9050146103cc576040517f08c379a00000000000000000000000000000000000000000000000000000000081526004016103c390610f49565b60405180910390fd5b6040518060c001604052808581526020018481526020018381526020018281526020014281526020016001151581525060018660405161040c9190610d62565b9081526020016040518091039020600082015181600001908161042f9190611115565b5060208201518160010190816104459190611115565b50604082015181600201908161045b9190611115565b5060608201518160030190816104719190611115565b506080820151816004015560a08201518160050160006101000a81548160ff021916908315150217905550905050846040516104ad9190610d62565b60405180910390207f3ca9b880c8645562f6f6dae2ec8c6da0e58ddcc82681ed677eb65aaaaf587742856040516104e491906111e7565b60405180910390a25050505050565b606080606080600080600060018860405161050e9190610d62565b9081526020016040518091039020600001805461052a90610da8565b90500361056c576040517f08c379a000000000000000000000000000000000000000000000000000000000815260040161056390610e25565b60405180910390fd5b600060018860405161057e9190610d62565b90815260200160405180910390206040518060c00160405290816000820180546105a790610da8565b80601f01602080910402602001604051908101604052809291908181526020018280546105d390610da8565b80156106205780601f106105f557610100808354040283529160200191610620565b820191906000526020600020905b81548152906001019060200180831161060357829003601f168201915b5050505050815260200160018201805461063990610da8565b80601f016020809104026020016040519081016040528092919081815260200182805461066590610da8565b80156106b25780601f10610687576101008083540402835291602001916106b2565b820191906000526020600020905b81548152906001019060200180831161069557829003601f168201915b505050505081526020016002820180546106cb90610da8565b80601f01602080910402602001604051908101604052809291908181526020018280546106f790610da8565b80156107445780601f1061071957610100808354040283529160200191610744565b820191906000526020600020905b81548152906001019060200180831161072757829003601f168201915b5050505050815260200160038201805461075d90610da8565b80601f016020809104026020016040519081016040528092919081815260200182805461078990610da8565b80156107d65780601f106107ab576101008083540402835291602001916107d6565b820191906000526020600020905b8154815290600101906020018083116107b957829003601f168201915b50505050508152602001600482015481526020016005820160009054906101000a900460ff1615151515815250509050806000015181602001518260400151836060015184608001518560a001519650965096509650965096505091939550919395565b60008054906101000a900473ffffffffffffffffffffffffffffffffffffffff1681565b6000604051905090565b600080fd5b600080fd5b600080fd5b600080fd5b6000601f19601f8301169050919050565b7f4e487b7100000000000000000000000000000000000000000000000000000000600052604160045260246000fd5b6108c58261087c565b810181811067ffffffffffffffff821117156108e4576108e361088d565b5b80604052505050565b60006108f761085e565b905061090382826108bc565b919050565b600067ffffffffffffffff8211156109235761092261088d565b5b61092c8261087c565b9050602081019050919050565b82818337600083830152505050565b600061095b61095684610908565b6108ed565b90508281526020810184848401111561097757610976610877565b5b610982848285610939565b509392505050565b600082601f83011261099f5761099e610872565b5b81356109af848260208601610948565b91505092915050565b6000602082840312156109ce576109cd610868565b5b600082013567ffffffffffffffff8111156109ec576109eb61086d565b5b6109f88482850161098a565b91505092915050565b600080600080600060a08688031215610a1d57610a1c610868565b5b600086013567ffffffffffffffff811115610a3b57610a3a61086d565b5b610a478882890161098a565b955050602086013567ffffffffffffffff811115610a6857610a6761086d565b5b610a748882890161098a565b945050604086013567ffffffffffffffff811115610a9557610a9461086d565b5b610aa18882890161098a565b935050606086013567ffffffffffffffff811115610ac257610ac161086d565b5b610ace8882890161098a565b925050608086013567ffffffffffffffff811115610aef57610aee61086d565b5b610afb8882890161098a565b9150509295509295909350565b600081519050919050565b600082825260208201905092915050565b60005b83811015610b42578082015181840152602081019050610b27565b60008484015250505050565b6000610b5982610b08565b610b638185610b13565b9350610b73818560208601610b24565b610b7c8161087c565b840191505092915050565b6000819050919050565b610b9a81610b87565b82525050565b60008115159050919050565b610bb581610ba0565b82525050565b600060c0820190508181036000830152610bd58189610b4e565b90508181036020830152610be98188610b4e565b90508181036040830152610bfd8187610b4e565b90508181036060830152610c118186610b4e565b9050610c206080830185610b91565b610c2d60a0830184610bac565b979650505050505050565b600073ffffffffffffffffffffffffffffffffffffffff82169050919050565b6000610c6382610c38565b9050919050565b610c7381610c58565b82525050565b6000602082019050610c8e6000830184610c6a565b92915050565b7f4163636573732044656e6965643a204f6e6c7920556e6976657273697479204160008201527f646d696e2063616e20706572666f726d207468697320616374696f6e00000000602082015250565b6000610cf0603c83610b13565b9150610cfb82610c94565b604082019050919050565b60006020820190508181036000830152610d1f81610ce3565b9050919050565b600081905092915050565b6000610d3c82610b08565b610d468185610d26565b9350610d56818560208601610b24565b80840191505092915050565b6000610d6e8284610d31565b915081905092915050565b7f4e487b7100000000000000000000000000000000000000000000000000000000600052602260045260246000fd5b60006002820490506001821680610dc057607f821691505b602082108103610dd357610dd2610d79565b5b50919050565b7f4572726f723a204365727469666963617465206e6f7420666f756e6421000000600082015250565b6000610e0f601d83610b13565b9150610e1a82610dd9565b602082019050919050565b60006020820190508181036000830152610e3e81610e02565b9050919050565b7f4572726f723a20436572746966696361746520697320616c726561647920726560008201527f766f6b6564210000000000000000000000000000000000000000000000000000602082015250565b6000610ea1602683610b13565b9150610eac82610e45565b604082019050919050565b60006020820190508181036000830152610ed081610e94565b9050919050565b7f4572726f723a204365727469666963617465204861736820616c72656164792060008201527f6578697374732100000000000000000000000000000000000000000000000000602082015250565b6000610f33602783610b13565b9150610f3e82610ed7565b604082019050919050565b60006020820190508181036000830152610f6281610f26565b9050919050565b60008190508160005260206000209050919050565b60006020601f8301049050919050565b600082821b905092915050565b600060088302610fcb7fffffffffffffffffffffffffffffffffffffffffffffffffffffffffffffffff82610f8e565b610fd58683610f8e565b95508019841693508086168417925050509392505050565b6000819050919050565b600061101261100d61100884610b87565b610fed565b610b87565b9050919050565b6000819050919050565b61102c83610ff7565b61104061103882611019565b848454610f9b565b825550505050565b600090565b611055611048565b611060818484611023565b505050565b5b818110156110845761107960008261104d565b600181019050611066565b5050565b601f8211156110c95761109a81610f69565b6110a384610f7e565b810160208510156110b2578190505b6110c66110be85610f7e565b830182611065565b50505b505050565b600082821c905092915050565b60006110ec600019846008026110ce565b1980831691505092915050565b600061110583836110db565b9150826002028217905092915050565b61111e82610b08565b67ffffffffffffffff8111156111375761113661088d565b5b6111418254610da8565b61114c828285611088565b600060209050601f83116001811461117f576000841561116d578287015190505b61117785826110f9565b8655506111df565b601f19841661118d86610f69565b60005b828110156111b557848901518255600182019150602085019450602081019050611190565b868310156111d257848901516111ce601f8916826110db565b8355505b6001600288020188555050505b505050505050565b600060208201905081810360008301526112018184610b4e565b90509291505056fea2646970667358221220393d8f9a91eac7babb4f6e26f7556a3276b2a60bc6280b87f11679523b59f42864736f6c63430008180033",
  "linkReferences": {},
  "deployedLinkReferences": {}
}